S01700004763634170706C69636174696F6E322E737265635A
S11300000C9483000C94A0000C94A0000C94A00009
S11300100C94A0000C94A0000C94A0000C94A000DC
S11300200C94A0000C94A0000C94A0000C94A000CC
S11300300C94A0000C94A0000C94A0000C94A000BC
S11300400C94A0000C94A0000C94A0000C94A000AC
S11300500C9402060C94D1050C94A0000C94A000FE
S11300600C94A0000C94A0000C94A0000C94A0008C
S11300700C945B060C942A060C94A0007702770279
S1130080770277027702750275025F0261026102EC
S11300906102610263026302630263027502750214
S11300A065026502650265026502750275026702F2
S11300B067026702670275027502750269026902C6
S11300C0690269026902750275026B026D026D02B2
S11300D06D026D026F026F026F026F02750275028C
S11300E0710271027102710271027502750273026A
S11300F0730273027302CA02CE02D202E102F00258
S1130100F602FC02020311241FBECFEFD8E0DEBFCB
S1130110CDBF11E0A0E0B1E0E0E9F8E102C0059054
S11301200D92A235B107D9F722E0A2E5B1E001C0F2
S11301301D92A03CB207E1F70E94C8040C94460C3F
S11301400C940000EF92FF920F931F93CF93C82F4C
S11301507B010E94130781111EC08C2F0E94DC06B4
S1130160EFE9FFE03197F1F700C000008111F5CF0E
S11301708701F4E0EF0EF11C8C2F0E94DC06F801DD
S113018081938F018FEC97E00197F1F700C0000095
S1130190EE15FF0589F7CF911F910F91FF90EF9016
S11301A00895FB01389620E030E090E0AC01022E87
S11301B002C0559547950A94E2F7417042932F5F28
S11301C03F4F2830310591F7089584B1886184B98F
S11301D084B58F7A84BD84B5806A84BD85B5877FF4
S11301E085BD84B58D7F84BD84B5816084BD86B5AD
S11301F016BC85B5897F85BD85B5816085BD0895AB
S113020097B517BC97B5892B87BD089598B518BCC9
S113021098B5892B88BD08959C01549A559AE0E8B5
S1130220F0E080818068808380818F7B80839081EF
S11302309062908390819F7E9083A1E8B0E09C912E
S113024090619C939C9198609C9390819260908320
S113025090819E7F90831092850010928400309349
S11302608700209386008C918B7F8C938C91826085
S11302708C938C918E7F8C930895909389008093B6
S1130280880008958AB1806C8AB9E0EBF0E080813F
S11302908F7A80838081806A8083A1EBB0E08C9127
S11302A0877F8C9380818D7F808380818160808330
S11302B0E2EBF0E08081108285B58A7F8C9385B56E
S11302C082608C930895E3EBF0E09081108290813A
S11302D0892B80830895E4EBF0E090811082908173
S11302E0892B80830895FC01718360834283138288
S11302F0148281E08583168217820895FC01868129
S113030081111FC08381A081B181A80FB11D6C939D
S113031015822381422F50E0828190E00197481793
S1130320590711F4138202C02F5F23836A3019F432
S113033087818F5F878393818481981302C081E0D2
S113034086830895FC018581811120C09481492F01
S113035050E0A081B181A40FB51F8C911682228137
S113036030E0215031094217530711F4148202C0BE
S11303709F5F94838A3019F49781915097832481E5
S11303809381291304C091E09583089580E0089532
S1130390FC018581089588B985E88A95F1F7000004
S11303A0179885E88A95F1F70000179A089515982B
S11303B081E00E94CB018FE99FE00197F1F700C033
S11303C00000159A0895813011F080E001C082E0A8
S11303D0159884600E94CB01159A0895813011F418
S11303E084E001C080E0613009F48260413009F4A6
S11303F08160159888600E94CB01159A0895CF9367
S1130400DF93C62FD42F98E398B9159816989FEFC9
S113041097B991B1906E91B9EFE1FEE43197F1F79C
S113042000C000001798EFE0F7E23197F1F700C041
S11304300000179AEFE0F7E23197F1F700C00000EF
S11304401798E7ECF0E03197F1F700C00000179A35
S1130450E7ECF0E03197F1F700C000001798EFEFF8
S1130460F5E03197F1F700C00000179A0E94E3010C
S11304704D2F6C2F81E00E94EE010E94D701DF9185
S1130480CF910895613011F490E401C090E0159883
S1130490890F80680E94CB01159A0895159A8032BD
S11304A018F00E94CB01089590E0FC01E05CF10992
S11304B0ED33F105D0F4E25CFF4F0C94560983E46C
S11304C017C085E415C089E413C08FE411C085E525
S11304D00FC081E60DC083E60BC085E609C089E63E
S11304E007C08FE605C085E703C085EA01C081E443
S11304F00E94CB01089540E061E081E00E94FF0189
S1130500109253011092520108950E94D701109243
S113051053010895CF93DF93803168F4623058F427
S1130520D62FC82F0E9442028C2F90E1D99F800DB4
S1130530112480935301DF91CF9108959091530139
S1130540292F22952F70813049F49F3118F0109291
S113055053010DC09F5F9093530109C0911104C0D2
S11305608FE18093530103C0915090935301909174
S1130570530192959F7081E0921301C080E0089529
S113058090E08830910508F042C0FC01E558FF4F27
S11305900C94560981E00E949E0239C080E00E94BA
S11305A09E0235C080915301803138F4805F80937E
S11305B0530181E0809352012AC0805180935301FA
S11305C026C080915301803138F08F70809353019D
S11305D081E0809352011BC0805F8093530117C058
S11305E0809153018F608093530111C08091530116
S11305F0807F809353010BC0809153018F7080934F
S1130600530105C080915301805F80935301809111
S11306105301682F62956F708F700E944202089593
S1130620CF93C82F803268F48A3019F08D3029F0C6
S113063020C083E00E94C0021CC085E00E94C0026A
S113064018C080915201813021F40E94D701109288
S113065052018C2F0E944E0281E00E949E02813042
S113066041F480915301682F62956F708F700E94DE
S11306704202CF9108950F931F93CF93FC01808181
S1130680882359F08F01C0E00E941003CF5FF80166
S1130690EC0FF11D80818111F7CFCF911F910F9144
S11306A008952F923F928F929F92AF92BF92EF92B2
S11306B0FF920F931F93CF93DF93E10128893F8526
S11306C02303C00111246FEF70E00E944209162F2A
S11306D0062F688B862F660F990B99231CF491952E
S11306E0819591097C016FE770E0681B790B072EF7
S11306F0000C880B990B0E94350823E333E34BE489
S113070050E40E948B0720E030E040EF51E40E9467
S11307101F074B015C016E85062E000C770B880BBE
S1130720990B0E9435089B01AC01C501B4010E94DC
S1130730C10820E030E048EC52E40E948B070E949C
S1130740FD076E87862F062E000C990B99231CF447
S11307509195819591098E159F050CF4C701262F5B
S1130760210F161B002344F066231CF08D871C8781
S11307700CC02D878C8709C0662324F02D878195B2
S11307808C8703C081958D871C873C85832F032E1E
S1130790000C990B99231CF4919581959109880F6C
S11307A08B872D85822F022E000C990B99231CF424
S11307B0919581959109880F8A8733231CF081E0F4
S11307C0898701C0198622231CF081E0888701C033
S11307D01886DF91CF911F910F91FF90EF90BF90FA
S11307E0AF909F908F903F902F9008952F923F92BB
S11307F0F10183AD8823A1F08281811102C081E0DF
S11308008283878520E8829FC00111246FEF70E006
S11308100E94420963876287118681E0808701C054
S113082012823F902F9008952F923F92F10186AD4E
S11308308823A1F08581811102C081E085838785A9
S113084020E8829FC00111246FEF70E00E944209EA
S11308506387628781E08187108601C015823F909B
S11308602F9008952F923F92CF93DF93E1018F81D0
S1130870882389F0F101EF5BFF4F80818F5F8083D4
S11308808A3048F08EEA91E00E943D011F82F10116
S1130890EF5BFF4F10828AAD882371F0898181114B
S11308A007C081E089838F8380E793E00E943D0144
S11308B0CF5BDF4F188201C01982DF91CF913F9047
S11308C02F9008952F923F92F10184AD882349F02F
S11308D08381811102C081E083838DE50E946301DD
S11308E004C0138280E00E9463013F902F9008951A
S11308F02F923F92F10185AD882351F084818111BB
S11309000EC081E084838FEF0E946B01289A07C098
S11309108481882321F0148280E00E946B013F903F
S11309202F9008952F923F92F10187AD882351F0C3
S1130930868181110EC081E086838FEF0E946B0156
S1130940289807C08681882321F0168280E00E94BF
S11309506B013F902F9008952F923F92CF93DF9396
S1130960E1018A850E9400018885882311F0299A73
S113097001C029988B850E9406018985882311F07E
S11309802A9A01C02A98DF91CF913F902F90089521
S1130990CF93DF93CDB7DEB7C654D1090FB6F89421
S11309A0DEBF0FBECDBF1B8A1D8A1C8AFE01FE96C8
S11309B088E0DF011D928A95E9F7F99787E0DF0166
S11309C01D928A95E9F727961FAE27971C861A8AE7
S11309D0198A1F86188ABFEF2DE389E4B15020409D
S11309E08040E1F700C00000529A5A9A84B18760AF
S11309F084B924B133B181E090E002C0880F991F1B
S1130A003A95E2F7822B84B980E00E94A20678949A
S1130A100E94E50080E29EE40E940C010E944201D3
S1130A200E947B028EEA91E00E943D0100E010E00A
S1130A300F2EF0E0CF2EF1E0DF2EF02D7E0196E1B7
S1130A40E90EF11C80E00E94130781115EC0BE0113
S1130A506F5F7F4F0E94A200898180588B8B8A81AF
S1130A6080588D8B8B818C8BBE01625C7F4F8C8117
S1130A700E94D100DE0115961D010E9451030E94BF
S1130A8032040E94F6030E9462040E9478040E94C9
S1130A9014040E9492040E94AC040E94850260E047
S1130AA080E00E948A0227968FAD27971F928F932A
S1130AB025968FAD25971F928F9324968FAD2497FB
S1130AC01F928F9323968FAD23971F928F93229615
S1130AD08FAD22971F928F9321968FAD21971F92EE
S1130AE08F938FAD1F928F93DF92CF92FF92EF92ED
S1130AF00E945C09C7010E943B030FB6F894DEBF55
S1130B000FBECDBF00E010E09DCF0F5F1F4F00333D
S1130B10B5E71B0708F496CF1B8A1D8A1C8A1EAEF4
S1130B201FAE21961FAE219722961FAE22972396C1
S1130B301FAE239724961FAE249725961FAE2597A4
S1130B40CE0105961C010E9451030E9432040E94AA
S1130B50F6030E9462040E9478040E9414040E9416
S1130B6092040E94AC040E94850260E080E00E942E
S1130B708A0283E291E00E943B0300E010E062CF2E
S1130B80882319F0813039F00895E1ECF0E0808198
S1130B908F7D80830895E9ECF0E080818F7D8083F0
S1130BA008951F920F920FB60F9211242F933F9323
S1130BB04F935F936F937F938F939F93AF93BF9361
S1130BC0EF93FF9384E691E00E94A2018093C60014
S1130BD084E691E00E94C801813019F480E00E940B
S1130BE0C005FF91EF91BF91AF919F918F917F913C
S1130BF06F915F914F913F912F910F900FBE0F9086
S1130C001F9018951F920F920FB60F9211242F93D5
S1130C103F934F935F936F937F938F939F93AF9380
S1130C20BF93EF93FF936091C6008CE691E00E941E
S1130C307E01FF91EF91BF91AF919F918F917F9131
S1130C406F915F914F913F912F910F900FBE0F9035
S1130C501F9018951F920F920FB60F9211242F9385
S1130C603F934F935F936F937F938F939F93AF9330
S1130C70BF93EF93FF9384E591E00E94A2018093D8
S1130C80CE0084E591E00E94C801882319F081E038
S1130C900E94C005FF91EF91BF91AF919F918F91F9
S1130CA07F916F915F914F913F912F910F900FBE64
S1130CB00F901F9018951F920F920FB60F92112448
S1130CC02F933F934F935F936F937F938F939F9350
S1130CD0AF93BF93EF93FF936091CE008CE591E0C7
S1130CE00E947E01FF91EF91BF91AF919F918F91EF
S1130CF07F916F915F914F913F912F910F900FBE14
S1130D000F901F901895882319F0813071F0089581
S1130D10E62FF0E0EE0FFF1FE15CFE4F8081918132
S1130D209093C5008093C4000895E62FF0E0EE0F81
S1130D30FF1FE15CFE4F808191819093CD008093F1
S1130D40CC000895CF93C82F882319F08130C1F0C7
S1130D502DC086E08093C20088E98093C100109280
S1130D60C00046E96AE272E08CE691E00E947301F9
S1130D7046E964E971E084E691E00E94730116C0DB
S1130D8086E08093CA0088E98093C9001092C80065
S1130D9040E164E871E08CE591E00E94730140E178
S1130DA064E771E084E591E00E94730162E08C2FB6
S1130DB00E948306CF910895CF93C82F882319F0FA
S1130DC0813059F014C0E1ECF0E080818F778083AA
S1130DD08CE691E00E94A20119C0E9ECF0E0808168
S1130DE08F7780838CE591E00E94A20115C0E82FE3
S1130DF0F0E0EE0FFF1FE55CFE4F808191810E94C1
S1130E00A201CC2319F0C13061F406C0E1ECF0E09A
S1130E1090819068908305C0E9ECF0E0908190683F
S1130E209083CF910895E82FF0E0EE0FFF1FE55C6B
S1130E30FE4F808191810E94C80108955058BB27BC
S1130E40AA270E9436070C9487080E94790838F074
S1130E500E94800820F039F49F3F19F426F40C9482
S1130E6076080EF4E095E7FB0C947008E92F0E94D5
S1130E70980858F3BA17620773078407950720F098
S1130E8079F4A6F50C94BA080EF4E0950B2EBA2F5B
S1130E90A02D0B01B90190010C01CA01A00111247C
S1130EA0FF27591B99F0593F50F4503E68F11A1628
S1130EB0F040A22F232F342F4427585FF3CF4695B9
S1130EC037952795A795F0405395C9F77EF41F16DB
S1130ED0BA0B620B730B840BBAF09150A1F0FF0FA5
S1130EE0BB1F661F771F881FC2F70EC0BA0F621F91
S1130EF0731F841F48F4879577956795B795F79581
S1130F009E3F08F0B0CF9395880F08F09927EE0F15
S1130F109795879508950E949F070C9487080E94CF
S1130F20800858F00E94790840F029F45F3F29F0C6
S1130F300C94700851110C94BB080C9476080E9410
S1130F40980868F39923B1F3552391F3951B550B36
S1130F50BB27AA2762177307840738F09F5F5F4F88
S1130F60220F331F441FAA1FA9F335D00E2E3AF0C7
S1130F70E0E832D091505040E695001CCAF72BD0DF
S1130F80FE2F29D0660F771F881FBB1F2617370730
S1130F904807AB07B0E809F0BB0B802DBF01FF2762
S1130FA093585F4F3AF09E3F510578F00C947008C7
S1130FB00C94BB085F3FE4F3983ED4F38695779591
S1130FC06795B795F7959F5FC9F7880F911D96951B
S1130FD0879597F90895E1E0660F771F881FBB1F77
S1130FE0621773078407BA0720F0621B730B840B24
S1130FF0BA0BEE1F88F7E09508950E9404086894E0
S1131000B1110C94BB0808950E94A00888F09F5762
S113101098F0B92F9927B751B0F0E1F0660F771F18
S1131020881F991F1AF0BA95C9F714C0B13091F00E
S11310300E94BA08B1E008950C94BA08672F782F7B
S11310408827B85F39F0B93FCCF3869577956795D3
S1131050B395D9F73EF490958095709561957F4F3F
S11310608F4F9F4F0895E89409C097FB3EF49095E5
S11310708095709561957F4F8F4F9F4F9923A9F06D
S1131080F92F96E9BB279395F695879577956795FC
S1131090B795F111F8CFFAF4BB0F11F460FF1BC040
S11310A06F5F7F4F8F4F9F4F16C0882311F096E9D3
S11310B011C0772321F09EE8872F762F05C0662381
S11310C071F096E8862F70E060E02AF09A95660F3A
S11310D0771F881FDAF7880F9695879597F90895F3
S11310E097F99F6780E870E060E008959FEF80ECD7
S11310F0089500240A94161617061806090608957A
S113110000240A9412161306140605060895092EDF
S11311100394000C11F4882352F0BB0F40F4BF2B4E
S113112011F460FF04C06F5F7F4F8F4F9F4F08958E
S113113057FD9058440F551F59F05F3F71F0479584
S1131140880F97FB991F61F09F3F79F08795089569
S1131150121613061406551FF2CF4695F1DF08C088
S1131160161617061806991FF1CF869571056105A5
S113117008940895E894BB2766277727CB0197F94D
S113118008950E94D4080C9487080E94790838F0C6
S11311900E94800820F0952311F00C9470080C94A0
S11311A0760811240C94BB080E94980870F3959F4C
S11311B0C1F3950F50E0551F629FF001729FBB274A
S11311C0F00DB11D639FAA27F00DB11DAA1F649FE6
S11311D06627B00DA11D661F829F2227B00DA11D99
S11311E0621F739FB00DA11D621F839FA00D611D1F
S11311F0221F749F3327A00D611D231F849F600D40
S1131200211D822F762F6A2F11249F5750409AF068
S1131210F1F088234AF0EE0FFF1FBB1F661F771FF4
S1131220881F91505040A9F79E3F510580F00C94BF
S113123070080C94BB085F3FE4F3983ED4F38695A2
S113124077956795B795F795E7959F5FC1F7FE2B5F
S1131250880F911D9695879597F90895AA1BBB1B36
S113126051E107C0AA1FBB1FA617B70710F0A61BA2
S1131270B70B881F991F5A95A9F780959095BC01C3
S1131280CD01089597FB072E16F4009407D077FD3F
S113129009D00E942E0907FC05D03EF49095819553
S11312A09F4F0895709561957F4F0895EE0FFF1F2E
S11312B00590F491E02D0994AEE0B0E0E2E6F9E0A7
S11312C00C941D0C0D891E8986E08C831A83098376
S11312D08FEF9FE79E838D83AE01475E5F4F6F89DB
S11312E0788DCE0101960E947E09EF81F885E00F8A
S11312F0F11F10822E96E4E00C94390CABE0B0E0C0
S1131300E4E8F9E00C940F0C6C017B018A01FC0108
S113131017821682838181FFCCC1CE0101963C01E4
S1131320F6019381F70193FD859193FF81917F01EC
S1131330882309F4BAC1853239F493FD859193FF6A
S113134081917F01853229F4B60190E00E94750BEA
S1131350E7CF912C212C312CFFE1F315D8F08B32FF
S113136079F038F4803279F08332A1F4232D2061AE
S11313701DC08D3261F0803369F4232D216016C0C5
S1131380832D8260382EE32DE4603E2E2AC0F32D97
S1131390F8601DC037FC2DC020ED280F2A3040F026
S11313A08E32B9F436FC81C1232D2064322E19C04B
S11313B036FE06C08AE0989E200D1124922E11C09C
S11313C0EAE02E9E200D1124222EF32DF0623F2EF2
S11313D008C08C3621F4832D8068382E02C08836EC
S11313E041F4F70193FD859193FF81917F01811170
S11313F0B3CF982F9F7D9554933028F40C5F1F4FE3
S11314009FE399830DC0833631F0833771F08335C0
S113141009F059C021C0F801808189830E5F1F4FF4
S113142088248394912C530113C02801F2E04F0EB9
S1131430511CF801A080B18036FE03C0692D70E014
S113144002C06FEF7FEFC5010E946A0B4C0182015D
S1131450F32DFF773F2E16C0280122E0420E511CC7
S1131460F801A080B18036FE03C0692D70E002C08F
S11314706FEF7FEFC5010E945F0B4C01F32DF06805
S11314803F2E820133FC1BC0822D90E08816990602
S1131490B0F4B60180E290E00E94750B2A94F4CF78
S11314A0F50137FC859137FE81915F01B60190E02B
S11314B00E94750B21102A9421E0821A910881144C
S11314C0910471F7E8C0843611F0893641F5F801CA
S11314D037FE07C060817181828193810C5F1F4F49
S11314E008C060817181072E000C880B990B0E5F78
S11314F01F4FF32DFF763F2E97FF09C090958095DF
S1131500709561957F4F8F4F9F4FF0683F2E2AE073
S113151030E0A3010E94B10B882E861845C08537A0
S113152031F4232D2F7EB22E2AE030E025C0932DF6
S1131530997FB92E8F36C1F018F4883579F0B5C08B
S1131540803719F0883721F0B0C0E92FE061BE2E52
S1131550B4FE0DC0FB2DF460BF2E09C034FE0AC0DA
S1131560292F2660B22E06C028E030E005C020E115
S113157030E002C020E132E0F801B7FE07C060812C
S11315807181828193810C5F1F4F06C060817181DC
S113159080E090E00E5F1F4FA3010E94B10B882EE4
S11315A08618FB2DFF773F2E36FE0DC0232D2E7F90
S11315B0A22E891458F434FE0BC032FC09C0832DCA
S11315C08E7EA82E05C0B82CA32C03C0B82C01C055
S11315D0B92CA4FE0FC0FE01E80DF11D80818033FB
S11315E021F49A2D997EA92E09C0A2FE06C0B394B7
S11315F0B39404C08A2D867809F0B394A3FC11C077
S1131600A0FE06C0B21488F4280C922C9B180EC0BD
S1131610B21460F4B60180E290E00E94750BB394BA
S1131620F7CFB21418F42B1802C0982C212CA4FE66
S113163010C0B60180E390E00E94750BA2FE17C0B3
S1131640A1FC03C088E790E002C088E590E0B60101
S11316500CC08A2D867859F0A1FE02C08BE201C02D
S113166080E2A7FC8DE2B60190E00E94750B89141C
S113167038F4B60180E390E00E94750B9A94F7CF9A
S11316808A94F301E80DF11D8081B60190E00E9477
S1131690750B8110F5CF222009F442CEB60180E209
S11316A090E00E94750B2A94F6CFF601868197810B
S11316B002C08FEF9FEF2B96E2E10C942B0CFC0100
S11316C00590615070400110D8F7809590958E0F69
S11316D09F1F0895FC016150704001900110D8F7DC
S11316E0809590958E0F9F1F08950F931F93CF930E
S11316F0DF93FB01238121FD03C08FEF9FEF2CC0FB
S113170022FF16C046815781248135814217530731
S113171044F4A081B1819D012F5F3F4F3183208329
S11317208C93268137812F5F3F4F3783268314C0E4
S11317308B01EC01FB010084F185E02D0995892BD7
S1131740E1F6D80116968D919C91179701961796FC
S11317509C938E931697CE01DF91CF911F910F9199
S11317600895FA01AA27283051F1203181F1E89433
S11317706F936E7F6E5F7F4F8F4F9F4FAF4FB1E080
S11317803ED0B4E03CD0670F781F891F9A1FA11D7B
S1131790680F791F8A1F911DA11D6A0F711D811D7C
S11317A0911DA11D20D009F468943F912AE0269F41
S11317B011243019305D3193DEF6CF010895462FA0
S11317C04770405D4193B3E00FD0C9F7F6CF462F81
S11317D04F70405D4A3318F0495D31FD40524193EA
S11317E002D0A9F7EACFB4E0A695979587957795A7
S11317F06795BA95C9F700976105710508959B012E
S1131800AC010A2E06945795479537952795BA95B6
S1131810C9F7620F731F841F951FA01D08952F928F
S11318203F924F925F926F927F928F929F92AF926C
S1131830BF92CF92DF92EF92FF920F931F93CF93B9
S1131840DF93CDB7DEB7CA1BDB0B0FB6F894DEBF50
S11318500FBECDBF09942A88398848885F846E8476
S11318607D848C849B84AA84B984C884DF80EE80C0
S1131870FD800C811B81AA81B981CE0FD11D0FB6C9
S1131880F894DEBF0FBECDBFED010895F894FFCFED
S1131890423125642C423225642C423325642C4287
S11318A03425642C423525642C423625642C566F2D
S11318B025640034303420434F4E4E4558494F4E32
S11318C0204E4F5420464F554E44006C015C01CFCE
S11318D0006700330019000C000800030001000138
S10518E0000002
S9030000FC
