S00D00004C616234612E7372656373
S11300000C9483000C94A0000C94A0000C94A00009
S11300100C94A0000C94A0000C94A0000C94A000DC
S11300200C94A0000C94A0000C94A0000C94A000CC
S11300300C94A0000C94A0000C94A0000C94A000BC
S11300400C94A0000C94A0000C94A0000C94A000AC
S11300500C9424040C94F3030C94A0000C94A000BE
S11300600C94A0000C94A0000C94A0000C94A0008C
S11300700C947D040C944C040C94A0002D022D02CD
S11300802D022D022D022B022B021502170217023C
S11300901702170219021902190219022B022B0264
S11300A01B021B021B021B021B022B022B021D0242
S11300B01D021D021D022B022B022B021F021F0216
S11300C01F021F021F022B022B0221022302230202
S11300D02302230225022502250225022B022B02DC
S11300E0270227022702270227022B022B022902BA
S11300F02902290229028002840288029702A602A8
S1130100AC02B202B80211241FBECFEFD8E0DEBFAA
S1130110CDBF11E0A0E0B1E0E4EAF0E102C0059057
S11301200D92AE33B107D9F722E0AEE3B1E001C0DE
S11301301D92AC3AB207E1F70E9407030C945008F1
S11301400C940000CF92EF920F939C2D990F916025
S1130150EE0CEE0CE92A000F000F000F0E2990E1BF
S1130160299F90011124022B20E2429FA001112417
S1130170402B90E4699FB0011124642B20E8829FF6
S1130180C0011124862B0F91EF90CF900895DF9238
S1130190EF92FF920F931F93CF93DF9300D000D081
S11301A01F92CDB7DEB7D82EE62EF42E122F60E0C4
S11301B00E94FE04E11002C0EE24E394F11002C098
S11301C0FF24F394111101C011E0E982FA821B8328
S11301D00C831D82BE016F5F7F4F8D2D0E9415051C
S11301E00F900F900F900F900F90DF91CF911F9170
S11301F00F91FF90EF90DF900895089809980B985D
S1130200ECE7F0E080818F77808380818064808355
S1130210808180628083EAE7F0E080818760808368
S11302208081806880830895ECE7F0E09081987F76
S11302308770892B8083EAE7F0E080818064808383
S1130240808186FDFDCF809179000895FC01718342
S1130250608342831382148281E08583168217822D
S11302600895FC01868181111FC08381A081B18121
S1130270A80FB11D6C9315822381422F50E0828117
S113028090E001974817590711F4138202C02F5FB9
S113029023836A3019F487818F5F878393818481F4
S11302A0981302C081E086830895FC018581811141
S11302B020C09481492F50E0A081B181A40FB51FC3
S11302C08C911682228130E0215031094217530764
S11302D011F4148202C09F5F94838A3019F49781C9
S11302E09150978324819381291304C091E09583CD
S11302F0089580E00895FC0185810895FC018681BC
S1130300089588B985E88A95F1F70000179885E87B
S11303108A95F1F70000179A0895159881E00E94D4
S113032081018FE99FE00197F1F700C00000159A61
S11303300895813011F080E001C082E01598846056
S11303400E948101159A0895813011F484E001C05E
S113035080E0613009F48260413009F481601598CD
S113036088600E948101159A0895CF93DF93C62F68
S1130370D42F98E398B9159816989FEF97B991B12F
S1130380906E91B9EFE1FEE43197F1F700C00000FF
S11303901798EFE0F7E23197F1F700C00000179AE1
S11303A0EFE0F7E23197F1F700C000001798E7ECAF
S11303B0F0E03197F1F700C00000179AE7ECF0E0A5
S11303C03197F1F700C000001798EFEFF5E031978F
S11303D0F1F700C00000179A0E9499014D2F6C2F6D
S11303E081E00E94A4010E948D01DF91CF910895C4
S11303F0613011F490E401C090E01598890F806891
S11304000E948101159A0895159A803218F00E946D
S11304108101089590E0FC01E05CF109ED33F10500
S1130420D0F4E25CFF4F0C94600583E417C085E4CC
S113043015C089E413C08FE411C085E50FC081E6BF
S11304400DC083E60BC085E609C089E607C08FE6C8
S113045005C085E703C085EA01C081E40E948101EB
S1130460089540E061E081E00E94B50110923F01EF
S113047010923E0108950E948D0110923F0108954B
S1130480CF93DF93803168F4623058F4D62FC82FAD
S11304900E94F8018C2F90E1D99F800D1124809344
S11304A03F01DF91CF91089590913F01292F22952B
S11304B02F70813049F49F3118F010923F010DC024
S11304C09F5F90933F0109C0911104C08FE1809315
S11304D03F0103C0915090933F0190913F01929549
S11304E09F7081E0921301C080E0089590E088300D
S11304F0910508F042C0FC01E558FF4F0C946005DB
S113050081E00E94540239C080E00E94540235C048
S113051080913F01803138F4805F80933F0181E016
S113052080933E012AC0805180933F0126C0809170
S11305303F01803138F08F7080933F0181E08093D8
S11305403E011BC0805F80933F0117C080913F0133
S11305508F6080933F0111C080913F01807F809321
S11305603F010BC080913F018F7080933F0105C014
S113057080913F01805F80933F0180913F01682F0C
S113058062956F708F700E94F8010895CF93C82F01
S1130590803268F48A3019F08D3029F020C083E06D
S11305A00E9476021CC085E00E94760218C08091E9
S11305B03E01813021F40E948D0110923E018C2F66
S11305C00E94040281E00E945402813041F480912F
S11305D03F01682F62956F708F700E94F801CF9170
S11305E008950F931F93CF93FC018081882359F0C2
S11305F08F01C0E00E94C602CF5FF801EC0FF11D2D
S113060080818111F7CFCF911F910F910895CF93DE
S1130610DF93CDB7DEB7E2970FB6F894DEBF0FBE17
S1130620CDBF0A980C985398549855985698579853
S1130630129A149A5B9A5C9A5D9A5E9A5F9A209ACF
S1130640219A229A239A249A289829982A982B98AE
S11306502C981EA61A8281E0898380E00E94C4043B
S11306600E9431020E94FD0078940F2EF0E08F2E3C
S1130670F1E09F2EF02D5E0123E0A20EB11C80E07C
S11306800E941401182F109581E00E941401F82E85
S1130690F09483E00E94140180958AAB90B181E0CC
S11306A092FB992790F998279BA790B19295917006
S11306B098279CA799B193FB992790F989278DA72F
S11306C04C9918C089818823B9F0198281E09A81F4
S11306D0911180E08A838EA7882331F0289A299A81
S11306E02A9A2B9A2C9A08C0289829982A982B98E9
S11306F02C9802C081E0898309B181E005FB0027C1
S113070000F908270FA7E9B0E6FAEE24E0F8E82696
S1130710E8AACC24C3944F99C12CC9AA2EA54DA5EF
S11307206CA58BA50E94A200082F2AA94F2D612F2A
S113073080E00E94C7000E943B0260E080E00E94CB
S113074040028AA91F928F9389A91F928F9388A927
S11307501F928F938FA51F928F938EA51F928F93B5
S11307608DA51F928F938CA51F928F938BA51F929B
S11307708F939F928F92BF92AF920E946605C5019C
S11307800E94F1028FEB9AE622E0815090402040D3
S1130790E1F700C000000FB6F894DEBF0FBECDBF76
S11307A06ECF882319F0813039F00895E1ECF0E040
S11307B08081806280830895E9ECF0E0808180622A
S11307C080830895882319F0813039F00895E1EC8D
S11307D0F0E080818F7D80830895E9ECF0E08081F2
S11307E08F7D808308951F920F920FB60F9211246C
S11307F02F933F934F935F936F937F938F939F9325
S1130800AF93BF93EF93FF9380E591E00E9455016E
S11308108093C60080E591E00E947B01813019F449
S113082080E00E94E203FF91EF91BF91AF919F910D
S11308308F917F916F915F914F913F912F910F9085
S11308400FBE0F901F9018951F920F920FB60F9224
S113085011242F933F934F935F936F937F938F93C1
S11308609F93AF93BF93EF93FF936091C60088E586
S113087091E00E943101FF91EF91BF91AF919F915F
S11308808F917F916F915F914F913F912F910F9035
S11308900FBE0F901F9018951F920F920FB60F92D4
S11308A011242F933F934F935F936F937F938F9371
S11308B09F93AF93BF93EF93FF9380E491E00E94E3
S11308C055018093CE0080E491E00E947B0188234F
S11308D019F081E00E94E203FF91EF91BF91AF9183
S11308E09F918F917F916F915F914F913F912F9144
S11308F00F900FBE0F901F9018951F920F920FB676
S11309000F9211242F933F934F935F936F937F9391
S11309108F939F93AF93BF93EF93FF936091CE0018
S113092088E491E00E943101FF91EF91BF91AF9172
S11309309F918F917F916F915F914F913F912F91F3
S11309400F900FBE0F901F901895882319F08130D7
S113095071F00895E62FF0E0EE0FFF1FE55DFE4F06
S1130960808191819093C5008093C4000895E62FFF
S1130970F0E0EE0FFF1FE55DFE4F808191819093C3
S1130980CD008093CC000895CF93C82F882319F00D
S11309908130C1F02DC086E08093C20088E9809345
S11309A0C1001092C00046E966E172E088E591E07A
S11309B00E94260146E960E871E080E591E00E942A
S11309C0260116C086E08093CA0088E98093C90096
S11309D01092C80040E160E771E088E491E00E9471
S11309E0260140E160E671E080E491E00E94260186
S11309F062E08C2F0E94A504CF910895CF93DF93DA
S1130A00C82FD62F0E94E203EC2FF0E0EE0FFF1F59
S1130A10E95DFE4F6D2F808191810E9431018C2F01
S1130A200E94D103DF91CF910895CF92DF92EF928C
S1130A30FF920F931F93CF93DF93FB019081992330
S1130A40B1F16B01D82FC0E0E82FF0E0EE0FFF1FEB
S1130A50E95DFE4FE080F180C7010E947E01813094
S1130A60D9F38D2F0E94E20386010C0F111DF801AA
S1130A70808181110EC012C0F8016081C7010E94FB
S1130A803101CF5F86010C0F111DF801908199236C
S1130A9029F0C7010E947E01882371F38D2F0E94E3
S1130AA0D103F601EC0FF11D80818111D5CFDF91C7
S1130AB0CF911F910F91FF90EF90DF90CF90089509
S1130AC0EE0FFF1F0590F491E02D0994AEE0B0E025
S1130AD0ECE6F5E00C9427080D891E8986E08C83EA
S1130AE01A8309838FEF9FE79E838D83AE01475E50
S1130AF05F4F6F89788DCE0101960E948805EF8142
S1130B00F885E00FF11F10822E96E4E00C94430860
S1130B10ABE0B0E0EEE8F5E00C9419086C017B0161
S1130B208A01FC0117821682838181FFCCC1CE0128
S1130B3001963C01F6019381F70193FD859193FFA2
S1130B4081917F01882309F4BAC1853239F493FD78
S1130B50859193FF81917F01853229F4B60190E05C
S1130B600E947F07E7CF912C212C312CFFE1F31554
S1130B70D8F08B3279F038F4803279F08332A1F4F2
S1130B80232D20611DC08D3261F0803369F4232D43
S1130B90216016C0832D8260382EE32DE4603E2E42
S1130BA02AC0F32DF8601DC037FC2DC020ED280F9E
S1130BB02A3040F08E32B9F436FC81C1232D2064F2
S1130BC0322E19C036FE06C08AE0989E200D1124EC
S1130BD0922E11C0EAE02E9E200D1124222EF32D18
S1130BE0F0623F2E08C08C3621F4832D8068382EA5
S1130BF002C0883641F4F70193FD859193FF8191FA
S1130C007F018111B3CF982F9F7D9554933028F4A1
S1130C100C5F1F4F9FE399830DC0833631F08337F8
S1130C2071F0833509F059C021C0F80180818983AE
S1130C300E5F1F4F88248394912C530113C0280105
S1130C40F2E04F0E511CF801A080B18036FE03C0C3
S1130C50692D70E002C06FEF7FEFC5010E94740739
S1130C604C018201F32DFF773F2E16C0280122E0AC
S1130C70420E511CF801A080B18036FE03C0692DDC
S1130C8070E002C06FEF7FEFC5010E9469074C015D
S1130C90F32DF0683F2E820133FC1BC0822D90E0BF
S1130CA088169906B0F4B60180E290E00E947F07AE
S1130CB02A94F4CFF50137FC859137FE81915F01C9
S1130CC0B60190E00E947F0721102A9421E0821A45
S1130CD091088114910471F7E8C0843611F08936C3
S1130CE041F5F80137FE07C06081718182819381EB
S1130CF00C5F1F4F08C060817181072E000C880BA8
S1130D00990B0E5F1F4FF32DFF763F2E97FF09C0FF
S1130D1090958095709561957F4F8F4F9F4FF068A8
S1130D203F2E2AE030E0A3010E94BB07882E8618DC
S1130D3045C0853731F4232D2F7EB22E2AE030E0D2
S1130D4025C0932D997FB92E8F36C1F018F48835BC
S1130D5079F0B5C0803719F0883721F0B0C0E92F99
S1130D60E061BE2EB4FE0DC0FB2DF460BF2E09C0A1
S1130D7034FE0AC0292F2660B22E06C028E030E0D7
S1130D8005C020E130E002C020E132E0F801B7FE06
S1130D9007C060817181828193810C5F1F4F06C0FF
S1130DA06081718180E090E00E5F1F4FA3010E947B
S1130DB0BB07882E8618FB2DFF773F2E36FE0DC00D
S1130DC0232D2E7FA22E891458F434FE0BC032FC3E
S1130DD009C0832D8E7EA82E05C0B82CA32C03C079
S1130DE0B82C01C0B92CA4FE0FC0FE01E80DF11D02
S1130DF08081803321F49A2D997EA92E09C0A2FE08
S1130E0006C0B394B39404C08A2D867809F0B394D1
S1130E10A3FC11C0A0FE06C0B21488F4280C922CC6
S1130E209B180EC0B21460F4B60180E290E00E94F8
S1130E307F07B394F7CFB21418F42B1802C0982C80
S1130E40212CA4FE10C0B60180E390E00E947F072D
S1130E50A2FE17C0A1FC03C088E790E002C088E5A9
S1130E6090E0B6010CC08A2D867859F0A1FE02C02C
S1130E708BE201C080E2A7FC8DE2B60190E00E9403
S1130E807F07891438F4B60180E390E00E947F075D
S1130E909A94F7CF8A94F301E80DF11D8081B6018D
S1130EA090E00E947F078110F5CF222009F442CE02
S1130EB0B60180E290E00E947F072A94F6CFF60103
S1130EC08681978102C08FEF9FEF2B96E2E10C940D
S1130ED03508FC010590615070400110D8F78095E9
S1130EE090958E0F9F1F0895FC01615070400190F2
S1130EF00110D8F7809590958E0F9F1F08950F933A
S1130F001F93CF93DF93FB01238121FD03C08FEF58
S1130F109FEF2CC022FF16C0468157812481358162
S1130F204217530744F4A081B1819D012F5F3F4FC5
S1130F30318320838C93268137812F5F3F4F378302
S1130F40268314C08B01EC01FB010084F185E02DA4
S1130F500995892BE1F6D80116968D919C911797E6
S1130F60019617969C938E931697CE01DF91CF919D
S1130F701F910F910895FA01AA27283051F12031C9
S1130F8081F1E8946F936E7F6E5F7F4F8F4F9F4F19
S1130F90AF4FB1E03ED0B4E03CD0670F781F891F5B
S1130FA09A1FA11D680F791F8A1F911DA11D6A0F29
S1130FB0711D811D911DA11D20D009F468943F91DC
S1130FC02AE0269F11243019305D3193DEF6CF01DB
S1130FD00895462F4770405D4193B3E00FD0C9F7A1
S1130FE0F6CF462F4F70405D4A3318F0495D31FD0E
S1130FF04052419302D0A9F7EACFB4E0A695979561
S1131000879577956795BA95C9F700976105710536
S113101008959B01AC010A2E069457954795379580
S11310202795BA95C9F7620F731F841F951FA01DDA
S113103008952F923F924F925F926F927F928F9278
S11310409F92AF92BF92CF92DF92EF92FF920F9353
S11310501F93CF93DF93CDB7DEB7CA1BDB0B0FB65D
S1131060F894DEBF0FBECDBF09942A88398848881A
S11310705F846E847D848C849B84AA84B984C884B0
S1131080DF80EE80FD800C811B81AA81B981CE0FA7
S1131090D11D0FB6F894DEBF0FBECDBFED0108958C
S10710A0F894FFCFEE
S11310A4423125642C423225642C423325642C427B
S11310B43425642C423525642C423625642C42376D
S11310C425642C5325640050014001CF006700338C
S11110D40019000C00080003000100010000D8
S9030000FC
